{
  "contractName": "BlindAuction",
  "abi": [
    {
      "inputs": [],
      "payable": false,
      "stateMutability": "nonpayable",
      "type": "constructor"
    },
    {
      "anonymous": false,
      "inputs": [
        {
          "indexed": false,
          "internalType": "address",
          "name": "winner",
          "type": "address"
        },
        {
          "indexed": false,
          "internalType": "uint256",
          "name": "highestBid",
          "type": "uint256"
        }
      ],
      "name": "AuctionEnded",
      "type": "event"
    },
    {
      "anonymous": false,
      "inputs": [],
      "name": "BiddingStarted",
      "type": "event"
    },
    {
      "anonymous": false,
      "inputs": [],
      "name": "RevealStarted",
      "type": "event"
    },
    {
      "constant": true,
      "inputs": [],
      "name": "currentPhase",
      "outputs": [
        {
          "internalType": "enum BlindAuction.Phase",
          "name": "",
          "type": "uint8"
        }
      ],
      "payable": false,
      "stateMutability": "view",
      "type": "function"
    },
    {
      "constant": true,
      "inputs": [],
      "name": "highestBid",
      "outputs": [
        {
          "internalType": "uint256",
          "name": "",
          "type": "uint256"
        }
      ],
      "payable": false,
      "stateMutability": "view",
      "type": "function"
    },
    {
      "constant": true,
      "inputs": [],
      "name": "highestBidder",
      "outputs": [
        {
          "internalType": "address",
          "name": "",
          "type": "address"
        }
      ],
      "payable": false,
      "stateMutability": "view",
      "type": "function"
    },
    {
      "constant": false,
      "inputs": [],
      "name": "advancePhase",
      "outputs": [],
      "payable": false,
      "stateMutability": "nonpayable",
      "type": "function"
    },
    {
      "constant": false,
      "inputs": [
        {
          "internalType": "bytes32",
          "name": "blindBid",
          "type": "bytes32"
        }
      ],
      "name": "bid",
      "outputs": [],
      "payable": true,
      "stateMutability": "payable",
      "type": "function"
    },
    {
      "constant": false,
      "inputs": [
        {
          "internalType": "uint256",
          "name": "value",
          "type": "uint256"
        },
        {
          "internalType": "bytes32",
          "name": "secret",
          "type": "bytes32"
        }
      ],
      "name": "reveal",
      "outputs": [],
      "payable": false,
      "stateMutability": "nonpayable",
      "type": "function"
    },
    {
      "constant": false,
      "inputs": [],
      "name": "withdraw",
      "outputs": [],
      "payable": false,
      "stateMutability": "nonpayable",
      "type": "function"
    },
    {
      "constant": false,
      "inputs": [],
      "name": "aunctionEnd",
      "outputs": [],
      "payable": false,
      "stateMutability": "nonpayable",
      "type": "function"
    }
  ],
  "bytecode": "0x608060405260008060006101000a81548160ff0219169083600381111561002257fe5b0217905550600060035534801561003857600080fd5b5033600060016101000a81548173ffffffffffffffffffffffffffffffffffffffff021916908373ffffffffffffffffffffffffffffffffffffffff16021790555060016000806101000a81548160ff0219169083600381111561009857fe5b0217905550610978806100ac6000396000f3fe60806040526004361061007b5760003560e01c806391f901571161004e57806391f901571461012c578063957bb1e014610183578063be25a718146101b1578063d57bde79146101c85761007b565b8063055ad42e146100805780633ccfd60b146100b95780634036778f146100d05780636a0c305014610115575b600080fd5b34801561008c57600080fd5b506100956101f3565b604051808260038111156100a557fe5b60ff16815260200191505060405180910390f35b3480156100c557600080fd5b506100ce610205565b005b3480156100dc57600080fd5b50610113600480360360408110156100f357600080fd5b8101908080359060200190929190803590602001909291905050506102e5565b005b34801561012157600080fd5b5061012a610447565b005b34801561013857600080fd5b50610141610576565b604051808273ffffffffffffffffffffffffffffffffffffffff1673ffffffffffffffffffffffffffffffffffffffff16815260200191505060405180910390f35b6101af6004803603602081101561019957600080fd5b810190808035906020019092919050505061059c565b005b3480156101bd57600080fd5b506101c661063d565b005b3480156101d457600080fd5b506101dd6107f1565b6040518082815260200191505060405180910390f35b6000809054906101000a900460ff1681565b6000600460003373ffffffffffffffffffffffffffffffffffffffff1673ffffffffffffffffffffffffffffffffffffffff1681526020019081526020016000205490506000811161025657600080fd5b6000600460003373ffffffffffffffffffffffffffffffffffffffff1673ffffffffffffffffffffffffffffffffffffffff168152602001908152602001600020819055503373ffffffffffffffffffffffffffffffffffffffff166108fc829081150290604051600060405180830381858888f193505050501580156102e1573d6000803e3d6000fd5b5050565b60028060038111156102f357fe5b6000809054906101000a900460ff16600381111561030d57fe5b1461031757600080fd5b6000809050610324610926565b600160003373ffffffffffffffffffffffffffffffffffffffff1673ffffffffffffffffffffffffffffffffffffffff1681526020019081526020016000206040518060400160405290816000820154815260200160018201548152505090508484604051602001808381526020018281526020019250505060405160208183030381529060405280519060200120816000015114156103f957806020015182019150848160200151106103f8576103dc33866107f7565b156103f7576103eb33866107f7565b156103f65784820391505b5b5b5b3373ffffffffffffffffffffffffffffffffffffffff166108fc839081150290604051600060405180830381858888f1935050505015801561043f573d6000803e3d6000fd5b505050505050565b600380600381111561045557fe5b6000809054906101000a900460ff16600381111561046f57fe5b1461047957600080fd5b600060019054906101000a900473ffffffffffffffffffffffffffffffffffffffff1673ffffffffffffffffffffffffffffffffffffffff166108fc6003549081150290604051600060405180830381858888f193505050501580156104e3573d6000803e3d6000fd5b507fdaec4582d5d9595688c8c98545fdd1c696d41c6aeaeb636737e84ed2f5c00eda600260009054906101000a900473ffffffffffffffffffffffffffffffffffffffff16600354604051808373ffffffffffffffffffffffffffffffffffffffff1673ffffffffffffffffffffffffffffffffffffffff1681526020018281526020019250505060405180910390a150565b600260009054906101000a900473ffffffffffffffffffffffffffffffffffffffff1681565b60018060038111156105aa57fe5b6000809054906101000a900460ff1660038111156105c457fe5b146105ce57600080fd5b604051806040016040528083815260200134815250600160003373ffffffffffffffffffffffffffffffffffffffff1673ffffffffffffffffffffffffffffffffffffffff16815260200190815260200160002060008201518160000155602082015181600101559050505050565b600060019054906101000a900473ffffffffffffffffffffffffffffffffffffffff1673ffffffffffffffffffffffffffffffffffffffff163373ffffffffffffffffffffffffffffffffffffffff161461069757600080fd5b6003808111156106a357fe5b6000809054906101000a900460ff1660038111156106bd57fe5b14156106eb5760008060006101000a81548160ff021916908360038111156106e157fe5b021790555061073b565b600060016000809054906101000a900460ff16600381111561070957fe5b01905080600381111561071857fe5b6000806101000a81548160ff0219169083600381111561073457fe5b0217905550505b6002600381111561074857fe5b6000809054906101000a900460ff16600381111561076257fe5b1415610795577f3bcc93d35219aa0512d7c0d1ca10b0231f473e3d5f9396877d1b7215ee0ab3d560405160405180910390a15b600160038111156107a257fe5b6000809054906101000a900460ff1660038111156107bc57fe5b14156107ef577f02c124e22ee7da1c9905bbb317cf67658c1cc3ea1c0953b1633f85d0b5c281d960405160405180910390a15b565b60035481565b6000600354821161080b5760009050610920565b600073ffffffffffffffffffffffffffffffffffffffff16600260009054906101000a900473ffffffffffffffffffffffffffffffffffffffff1673ffffffffffffffffffffffffffffffffffffffff16146108d35760035460046000600260009054906101000a900473ffffffffffffffffffffffffffffffffffffffff1673ffffffffffffffffffffffffffffffffffffffff1673ffffffffffffffffffffffffffffffffffffffff168152602001908152602001600020600082825401925050819055505b8160038190555082600260006101000a81548173ffffffffffffffffffffffffffffffffffffffff021916908373ffffffffffffffffffffffffffffffffffffffff160217905550600190505b92915050565b60405180604001604052806000801916815260200160008152509056fea265627a7a7231582079207fe239374b46fa204258c241b41f3a08b981ad4fdab86e8a1440f36807a664736f6c63430005100032",
  "source": "pragma solidity >=0.4.22 <=0.6.0;\n\ncontract BlindAuction {\n  struct Bid {\n    bytes32 blindedBid;\n    uint256 deposit;\n  }\n\n  enum Phase {\n    Init,\n    Bidding,\n    Reveal,\n    Done\n  }\n\n  Phase public currentPhase = Phase.Init;\n\n  address payable beneficiary;\n  mapping(address => Bid) bids;\n\n  address public highestBidder;\n  uint256 public highestBid = 0;\n\n  mapping(address => uint256) depositReturns;\n\n  // 이벤트 선언 추가\n  event AuctionEnded(address winner, uint256 highestBid);\n  event BiddingStarted();\n  event RevealStarted();\n\n  modifier validPhase(Phase reqPhase) {\n    require(currentPhase == reqPhase);\n    _;\n  }\n\n  modifier onlyBeneficiary() {\n    require(msg.sender == beneficiary);\n    _;\n  }\n\n  constructor() public {\n    beneficiary = msg.sender;\n    currentPhase = Phase.Bidding;\n  }\n\n  //   function changeState(Phase x) public onlyBeneficiary {\n  //     require(x > state);\n  //     state = x;\n  //   }\n  // changeState 함수 변경\n  function advancePhase() public onlyBeneficiary {\n    if (currentPhase == Phase.Done) {\n      currentPhase = Phase.Init;\n    } else {\n      // enumtype에 1을 더하려면 uint로 전환 후 해줘야 하며\n      // 반대의 경우에도 enum 안에 uint형식의 value를 넣어 전환해줘야 정상작동한다.\n      uint256 nextPhase = uint256(currentPhase) + 1;\n      currentPhase = Phase(nextPhase);\n    }\n    // currentPhase 상태에 따른 이벤트 호출\n    if (currentPhase == Phase.Reveal) emit RevealStarted();\n    if (currentPhase == Phase.Bidding) emit BiddingStarted();\n  }\n\n  function bid(bytes32 blindBid) public payable validPhase(Phase.Bidding) {\n    bids[msg.sender] = Bid({ blindedBid: blindBid, deposit: msg.value });\n  }\n\n  function reveal(uint256 value, bytes32 secret)\n    public\n    validPhase(Phase.Reveal)\n  {\n    uint256 refund = 0;\n    Bid memory bidtoCheck = bids[msg.sender];\n    if (bidtoCheck.blindedBid == keccak256(abi.encodePacked(value, secret))) {\n      refund = refund + bidtoCheck.deposit;\n      if (bidtoCheck.deposit >= value) {\n        if (placeBid(msg.sender, value)) {\n          if (placeBid(msg.sender, value)) {\n            refund = refund - value;\n          }\n        }\n      }\n    }\n    msg.sender.transfer(refund);\n  }\n\n  function placeBid(address bidder, uint256 value) internal returns (bool) {\n    if (value <= highestBid) {\n      return false;\n    }\n    if (highestBidder != address(0)) {\n      depositReturns[highestBidder] += highestBid;\n    }\n    highestBid = value;\n    highestBidder = bidder;\n    return true;\n  }\n\n  function withdraw() public {\n    uint256 amount = depositReturns[msg.sender];\n    require(amount > 0);\n    depositReturns[msg.sender] = 0;\n    msg.sender.transfer(amount);\n  }\n\n  function aunctionEnd() public validPhase(Phase.Done) {\n    beneficiary.transfer(highestBid);\n    // 최고가 낙찰자 추소와 amount 이벤트로 알림\n    emit AuctionEnded(highestBidder, highestBid);\n  }\n}\n",
  "sourcePath": "/Users/sunghyun/Desktop/gitHuobi/BlockChain/Blockchain-in-Action/Chapter6/BlindAuctionV2-Dapp/blindAuction-contract/contracts/BlindedAuctionV2.sol",
  "compiler": {
    "name": "solc",
    "version": "0.5.16+commit.9c3226ce.Emscripten.clang"
  },
  "schemaVersion": "3.4.7",
  "updatedAt": "2022-06-05T12:55:37.387Z",
  "networkType": "ethereum",
  "devdoc": {
    "methods": {}
  },
  "userdoc": {
    "methods": {}
  }
}