{
  "contractName": "MPC",
  "abi": [
    {
      "constant": true,
      "inputs": [],
      "name": "recipient",
      "outputs": [
        {
          "name": "",
          "type": "address"
        }
      ],
      "payable": false,
      "stateMutability": "view",
      "type": "function"
    },
    {
      "constant": true,
      "inputs": [],
      "name": "sender",
      "outputs": [
        {
          "name": "",
          "type": "address"
        }
      ],
      "payable": false,
      "stateMutability": "view",
      "type": "function"
    },
    {
      "inputs": [
        {
          "name": "reciever",
          "type": "address"
        }
      ],
      "payable": true,
      "stateMutability": "payable",
      "type": "constructor"
    },
    {
      "constant": false,
      "inputs": [
        {
          "name": "amount",
          "type": "uint256"
        },
        {
          "name": "signedMessage",
          "type": "bytes"
        }
      ],
      "name": "claimPayment",
      "outputs": [],
      "payable": false,
      "stateMutability": "nonpayable",
      "type": "function"
    }
  ],
  "bytecode": "0x60806040526040516020806105e78339810180604052602081101561002357600080fd5b8101908080519060200190929190505050336000806101000a81548173ffffffffffffffffffffffffffffffffffffffff021916908373ffffffffffffffffffffffffffffffffffffffff16021790555080600160006101000a81548173ffffffffffffffffffffffffffffffffffffffff021916908373ffffffffffffffffffffffffffffffffffffffff16021790555050610522806100c56000396000f3fe608060405234801561001057600080fd5b50600436106100415760003560e01c8063392aa3c31461004657806366d003ac1461010b57806367e404ce14610155575b600080fd5b6101096004803603604081101561005c57600080fd5b81019080803590602001909291908035906020019064010000000081111561008357600080fd5b82018360208201111561009557600080fd5b803590602001918460018302840111640100000000831117156100b757600080fd5b91908080601f016020809104026020016040519081016040528093929190818152602001838380828437600081840152601f19601f82011690508083019250505050505050919291929050505061019f565b005b6101136102d2565b604051808273ffffffffffffffffffffffffffffffffffffffff1673ffffffffffffffffffffffffffffffffffffffff16815260200191505060405180910390f35b61015d6102f8565b604051808273ffffffffffffffffffffffffffffffffffffffff1673ffffffffffffffffffffffffffffffffffffffff16815260200191505060405180910390f35b600160009054906101000a900473ffffffffffffffffffffffffffffffffffffffff1673ffffffffffffffffffffffffffffffffffffffff163373ffffffffffffffffffffffffffffffffffffffff16146101f957600080fd5b610203828261031d565b61020c57600080fd5b813073ffffffffffffffffffffffffffffffffffffffff16311161022f57600080fd5b600160009054906101000a900473ffffffffffffffffffffffffffffffffffffffff1673ffffffffffffffffffffffffffffffffffffffff166108fc839081150290604051600060405180830381858888f19350505050158015610297573d6000803e3d6000fd5b506000809054906101000a900473ffffffffffffffffffffffffffffffffffffffff1673ffffffffffffffffffffffffffffffffffffffff16ff5b600160009054906101000a900473ffffffffffffffffffffffffffffffffffffffff1681565b6000809054906101000a900473ffffffffffffffffffffffffffffffffffffffff1681565b6000806103863085604051602001808373ffffffffffffffffffffffffffffffffffffffff1673ffffffffffffffffffffffffffffffffffffffff1660601b815260140182815260200192505050604051602081830303815290604052805190602001206103ea565b90506000809054906101000a900473ffffffffffffffffffffffffffffffffffffffff1673ffffffffffffffffffffffffffffffffffffffff166103ca8285610442565b73ffffffffffffffffffffffffffffffffffffffff161491505092915050565b60008160405160200180807f2f783139457468657265756d205369676e6564204d6573736167653a2f333200815250601f01828152602001915050604051602081830303815290604052805190602001209050919050565b600080600080610451856104c9565b92509250925060018684848460405160008152602001604052604051808581526020018460ff1660ff1681526020018381526020018281526020019450505050506020604051602081039080840390855afa1580156104b4573d6000803e3d6000fd5b50505060206040510351935050505092915050565b60008060006020840151915060408401519050606084015160001a9250828282925092509250919390925056fea165627a7a72305820cf9190e4959b641b7269774a8371686fdbb888f5358d8dc1c1ee7642f08740ef0029",
  "source": "pragma solidity >=0.4.24 <0.7.0;\n\ncontract MPC {\n  address payable public sender;\n  address payable public recipient;\n\n  constructor(address payable reciever) public payable {\n    sender = msg.sender;\n    recipient = reciever;\n  }\n\n  // 이에 앞서 오프체인에서 쓰레기를 줍고, 그에 대한 microPayment를 여러 개 제공해준 상태이다.\n  // 다시말해 claimPayment를 실행하는 사람(참여자)는 이미 주관자의 서명이 된 signedMessage를 가지고있는 상태이다.\n  function claimPayment(uint256 amount, bytes memory signedMessage) public {\n    require(msg.sender == recipient);\n    require(isValidSignature(amount, signedMessage));\n    // 컨트랙트 주소에 할당되어있는 deposit value가 요구되는 금액보다 커야한다.\n    require(address(this).balance > amount);\n    recipient.transfer(amount);\n    // 남은 balance를 sender에게 보내고 컨트랙트는 자체폐기한다.\n    selfdestruct(sender);\n  }\n\n  // 사인된 tx가 유효한지 검사하는 함수\n  // 개인키로 서명되어있는 메시지가 인자값으로 전달됨\n  function isValidSignature(uint256 amount, bytes memory signedMessage)\n    internal\n    view\n    returns (bool)\n  {\n    // 1. 여기서 \"this\"는 컨트랙트 자체를 가리키는데, this의 어떤부분이 hash인자로 들어가는 것인가?\n    // (address, abi, byteCode 등 이 컨트랙트를 나타내는 여러 요소 중 어떤것이 들어가는것인지)\n    // 또한 그 값을 왜 인자로 같이 넣어서 해싱을 하는 것인가?\n    bytes32 message = prefixed(keccak256(abi.encodePacked(this, amount)));\n    return recoverSigner(message, signedMessage) == sender;\n  }\n\n  function prefixed(bytes32 hash) internal pure returns (bytes32) {\n    return keccak256(abi.encodePacked(\"/x19Ethereum Signed Message:/32\", hash));\n  }\n\n  // ecrecover == signdeMessage에서 추출한 v, r, s와 해싱된 message를 인자로 받아서 sender의 주소를 추출하는 함수(?)\n  function recoverSigner(bytes32 message, bytes memory signedMessage)\n    internal\n    pure\n    returns (address)\n  {\n    (uint8 v, bytes32 r, bytes32 s) = splitSignature(signedMessage);\n    return ecrecover(message, v, r, s);\n  }\n\n  function splitSignature(bytes memory signedMessage)\n    internal\n    pure\n    returns (\n      uint8 v,\n      bytes32 r,\n      bytes32 s\n    )\n  {\n    assembly {\n      // mload는 주어진 숫자의 위치부터 32byte를 읽어오는 함수\n      // add는 주어진 두 값을 더하는 함수\n      // 2. add(signedMessage, 32)는 sig값의 길이에 32를 더하고 그 위치에 있는 32byte를 가져오는 것인가?\n      // 그렇다면 signedMessage는 숫자인가?\n      r := mload(add(signedMessage, 32))\n      s := mload(add(signedMessage, 64))\n      v := byte(0, mload(add(signedMessage, 96)))\n    }\n    // 3. 위에서 v는 byte로 변환한 값으로 선언하였는데, 어떻게 return할 때는 uint8 값으로 return될 수 있는지\n    return (v, r, s);\n  }\n}\n",
  "sourcePath": "/Users/sunghyun/Desktop/gitHuobi/BlockChain/Blockchain-in-Action/Chapter7/MPC-Dapp/MPC-contract/contracts/MPC.sol",
  "compiler": {
    "name": "solc",
    "version": "0.5.8+commit.23d335f2.Emscripten.clang"
  },
  "schemaVersion": "3.4.7",
  "updatedAt": "2022-06-06T10:04:09.575Z",
  "networkType": "ethereum",
  "devdoc": {
    "methods": {}
  },
  "userdoc": {
    "methods": {}
  }
}