{
  "contractName": "Airlines",
  "abi": [
    {
      "inputs": [],
      "payable": true,
      "stateMutability": "payable",
      "type": "constructor"
    },
    {
      "constant": true,
      "inputs": [
        {
          "internalType": "address",
          "name": "",
          "type": "address"
        }
      ],
      "name": "escrow",
      "outputs": [
        {
          "internalType": "uint256",
          "name": "",
          "type": "uint256"
        }
      ],
      "payable": false,
      "stateMutability": "view",
      "type": "function"
    },
    {
      "constant": false,
      "inputs": [],
      "name": "register",
      "outputs": [],
      "payable": true,
      "stateMutability": "payable",
      "type": "function"
    },
    {
      "constant": false,
      "inputs": [
        {
          "internalType": "address payable",
          "name": "AirlineZ",
          "type": "address"
        }
      ],
      "name": "unregister",
      "outputs": [],
      "payable": false,
      "stateMutability": "nonpayable",
      "type": "function"
    },
    {
      "constant": false,
      "inputs": [
        {
          "internalType": "uint256",
          "name": "reqID",
          "type": "uint256"
        },
        {
          "internalType": "uint256",
          "name": "flightID",
          "type": "uint256"
        },
        {
          "internalType": "uint256",
          "name": "numSeats",
          "type": "uint256"
        },
        {
          "internalType": "uint256",
          "name": "custID",
          "type": "uint256"
        },
        {
          "internalType": "address",
          "name": "toAirline",
          "type": "address"
        }
      ],
      "name": "ASKreqest",
      "outputs": [],
      "payable": false,
      "stateMutability": "nonpayable",
      "type": "function"
    },
    {
      "constant": false,
      "inputs": [
        {
          "internalType": "uint256",
          "name": "reqID",
          "type": "uint256"
        },
        {
          "internalType": "bool",
          "name": "success",
          "type": "bool"
        },
        {
          "internalType": "address",
          "name": "fromAirline",
          "type": "address"
        }
      ],
      "name": "ASKresponse",
      "outputs": [],
      "payable": false,
      "stateMutability": "nonpayable",
      "type": "function"
    },
    {
      "constant": false,
      "inputs": [
        {
          "internalType": "uint256",
          "name": "reqID",
          "type": "uint256"
        },
        {
          "internalType": "address payable",
          "name": "toAirline",
          "type": "address"
        },
        {
          "internalType": "uint256",
          "name": "numSeats",
          "type": "uint256"
        }
      ],
      "name": "settlePayment",
      "outputs": [],
      "payable": true,
      "stateMutability": "payable",
      "type": "function"
    },
    {
      "constant": false,
      "inputs": [],
      "name": "reqlenishEscrow",
      "outputs": [],
      "payable": true,
      "stateMutability": "payable",
      "type": "function"
    }
  ],
  "bytecode": "0x6080604052336000806101000a81548173ffffffffffffffffffffffffffffffffffffffff021916908373ffffffffffffffffffffffffffffffffffffffff1602179055506001600260003373ffffffffffffffffffffffffffffffffffffffff1673ffffffffffffffffffffffffffffffffffffffff1681526020019081526020016000208190555034600160003373ffffffffffffffffffffffffffffffffffffffff1673ffffffffffffffffffffffffffffffffffffffff16815260200190815260200160002081905550610a01806100dc6000396000f3fe6080604052600436106100705760003560e01c806357d3c7c31161004e57806357d3c7c3146101375780635afc6ef11461019c5780637cb21137146101a6578063da419f861461021f57610070565b80631aa3a008146100755780632b9eed751461007f5780632ec2c246146100e6575b600080fd5b61007d610277565b005b34801561008b57600080fd5b506100e4600480360360608110156100a257600080fd5b8101908080359060200190929190803515159060200190929190803573ffffffffffffffffffffffffffffffffffffffff169060200190929190505050610308565b005b3480156100f257600080fd5b506101356004803603602081101561010957600080fd5b81019080803573ffffffffffffffffffffffffffffffffffffffff16906020019092919050505061047b565b005b34801561014357600080fd5b506101866004803603602081101561015a57600080fd5b81019080803573ffffffffffffffffffffffffffffffffffffffff1690602001909291905050506105e7565b6040518082815260200191505060405180910390f35b6101a46105ff565b005b3480156101b257600080fd5b5061021d600480360360a08110156101c957600080fd5b8101908080359060200190929190803590602001909291908035906020019092919080359060200190929190803573ffffffffffffffffffffffffffffffffffffffff169060200190929190505050610686565b005b6102756004803603606081101561023557600080fd5b8101908080359060200190929190803573ffffffffffffffffffffffffffffffffffffffff16906020019092919080359060200190929190505050610813565b005b60003390506001600260003373ffffffffffffffffffffffffffffffffffffffff1673ffffffffffffffffffffffffffffffffffffffff1681526020019081526020016000208190555034600160008373ffffffffffffffffffffffffffffffffffffffff1673ffffffffffffffffffffffffffffffffffffffff1681526020019081526020016000208190555050565b6001600260003373ffffffffffffffffffffffffffffffffffffffff1673ffffffffffffffffffffffffffffffffffffffff168152602001908152602001600020541461035457600080fd5b81600460003373ffffffffffffffffffffffffffffffffffffffff1673ffffffffffffffffffffffffffffffffffffffff16815260200190815260200160002060010160006101000a81548160ff02191690831515021790555080600460003373ffffffffffffffffffffffffffffffffffffffff1673ffffffffffffffffffffffffffffffffffffffff16815260200190815260200160002060010160016101000a81548173ffffffffffffffffffffffffffffffffffffffff021916908373ffffffffffffffffffffffffffffffffffffffff16021790555082600460003373ffffffffffffffffffffffffffffffffffffffff1673ffffffffffffffffffffffffffffffffffffffff16815260200190815260200160002060000181905550505050565b6000809054906101000a900473ffffffffffffffffffffffffffffffffffffffff1673ffffffffffffffffffffffffffffffffffffffff163373ffffffffffffffffffffffffffffffffffffffff16146104d457600080fd5b6000600260008373ffffffffffffffffffffffffffffffffffffffff1673ffffffffffffffffffffffffffffffffffffffff168152602001908152602001600020819055508073ffffffffffffffffffffffffffffffffffffffff166108fc600160008473ffffffffffffffffffffffffffffffffffffffff1673ffffffffffffffffffffffffffffffffffffffff168152602001908152602001600020549081150290604051600060405180830381858888f1935050505015801561059e573d6000803e3d6000fd5b506000600160008373ffffffffffffffffffffffffffffffffffffffff1673ffffffffffffffffffffffffffffffffffffffff1681526020019081526020016000208190555050565b60016020528060005260406000206000915090505481565b34600160003373ffffffffffffffffffffffffffffffffffffffff1673ffffffffffffffffffffffffffffffffffffffff1681526020019081526020016000205401600160003373ffffffffffffffffffffffffffffffffffffffff1673ffffffffffffffffffffffffffffffffffffffff16815260200190815260200160002081905550565b6001600260003373ffffffffffffffffffffffffffffffffffffffff1673ffffffffffffffffffffffffffffffffffffffff16815260200190815260200160002054146106d257600080fd5b6001600260008373ffffffffffffffffffffffffffffffffffffffff1673ffffffffffffffffffffffffffffffffffffffff168152602001908152602001600020541461071e57600080fd5b6040518060a001604052808681526020018581526020018481526020018381526020018273ffffffffffffffffffffffffffffffffffffffff16815250600360003373ffffffffffffffffffffffffffffffffffffffff1673ffffffffffffffffffffffffffffffffffffffff1681526020019081526020016000206000820151816000015560208201518160010155604082015181600201556060820151816003015560808201518160040160006101000a81548173ffffffffffffffffffffffffffffffffffffffff021916908373ffffffffffffffffffffffffffffffffffffffff1602179055509050505050505050565b6001600260003373ffffffffffffffffffffffffffffffffffffffff1673ffffffffffffffffffffffffffffffffffffffff168152602001908152602001600020541461085f57600080fd5b6000339050670de0b6b3a76400008202600160008573ffffffffffffffffffffffffffffffffffffffff1673ffffffffffffffffffffffffffffffffffffffff1681526020019081526020016000205401600160008573ffffffffffffffffffffffffffffffffffffffff1673ffffffffffffffffffffffffffffffffffffffff16815260200190815260200160002081905550670de0b6b3a76400008202600160008373ffffffffffffffffffffffffffffffffffffffff1673ffffffffffffffffffffffffffffffffffffffff1681526020019081526020016000205403600160008373ffffffffffffffffffffffffffffffffffffffff1673ffffffffffffffffffffffffffffffffffffffff1681526020019081526020016000208190555083600560008373ffffffffffffffffffffffffffffffffffffffff1673ffffffffffffffffffffffffffffffffffffffff168152602001908152602001600020819055505050505056fea265627a7a72315820ef9816d203aa1b3ce186b1ec2afd5f68f62bc334ed182b410d3c137321bce91064736f6c63430005100032",
  "source": "pragma solidity >=0.4.22 <=0.6.0;\n\ncontract Airlines {\n  address chairperson;\n\n  // 좌석교체 요청을 보내는 형식을 나타내는 구조체\n  // 1. 요청번호 2. 비행 아이디(비행예정 리스트 중 몇번째 요소에 대한 요구인가) 3. 몇 좌석? 4. 승객 아이디 5. request를 받는 항공사 address\n  struct reqStruc {\n    uint256 reqID;\n    uint256 fID;\n    uint256 numSeats;\n    uint256 passengerID;\n    address toAirline;\n  }\n\n  // 좌석교체 요청에 대한 대답 형식을 나타내는 구조체\n  // 1. 요청번호 2. 성공여부(좌석이 실제로 남아있고, 사용가능한지) 3. 요청을 보낸 항공사 address\n  struct respStruc {\n    uint256 reqID;\n    bool status;\n    address fromAirline;\n  }\n\n  mapping(address => uint256) public escrow;\n  mapping(address => uint256) membership;\n  mapping(address => reqStruc) reqs;\n  mapping(address => respStruc) reps;\n  mapping(address => uint256) settledReqID;\n\n  modifier onlyChairperson() {\n    require(msg.sender == chairperson);\n    _;\n  }\n\n  modifier onlyMember() {\n    require(membership[msg.sender] == 1);\n    _;\n  }\n\n  constructor() public payable {\n    chairperson = msg.sender;\n    membership[msg.sender] = 1;\n    escrow[msg.sender] = msg.value;\n  }\n\n  // ASK 서비스에 가입을 희망하는 항공사가 실행하는 함수\n  function register() public payable {\n    address AirlineA = msg.sender;\n    membership[msg.sender] = 1;\n    escrow[AirlineA] = msg.value;\n  }\n\n  // 회원삭제, chairperson만 실행할 수 있으며 남은 escrow(예치금)을 환불해줌\n  function unregister(address payable AirlineZ) public onlyChairperson {\n    membership[AirlineZ] = 0;\n    AirlineZ.transfer(escrow[AirlineZ]);\n    escrow[AirlineZ] = 0;\n  }\n\n  // request를 보내는 tx\n  // 이에 앞서 offChain으로 request를 보내게 된다.\n  // 이후 ASKrequest 함수를 실행하여 블록체인상에 거래기록(요청기록)을 남긴다.\n  function ASKreqest(\n    uint256 reqID,\n    uint256 flightID,\n    uint256 numSeats,\n    uint256 custID,\n    address toAirline\n  ) public onlyMember {\n    require(membership[toAirline] == 1);\n    reqs[msg.sender] = reqStruc(reqID, flightID, numSeats, custID, toAirline);\n  }\n\n  // 마찬가지로 아래 함수 실행에 앞서 offChain으로 from 항공사에 response가 제공된다.\n  // 이후 ASKresponse 함수를 실행하여 블록체인상에 응답기록을 남긴다.\n  // 오류반환문과 mapping 내의 struct 정보 업데이트를 위와 다른 방식으로 작성하였다. 두 가지 방법 모두 사용 가능하다.\n  function ASKresponse(\n    uint256 reqID,\n    bool success,\n    address fromAirline\n  ) public onlyMember {\n    reps[msg.sender].status = success;\n    reps[msg.sender].fromAirline = fromAirline;\n    reps[msg.sender].reqID = reqID;\n  }\n\n  // 위 ASKresponse 함수의 결괏값이 reps[address].status == true 일 때 예치금을 이용하여 정산하는 함수\n  // payment를 지급한다는 것은 seatChange가 성사되었다는 의미이고, 그러므로 함수 실행에 앞서 offChain에서는 남은 좌석수의 정보와 client에게 보여지는 table을 업데이트 해야한다.\n  function settlePayment(\n    uint256 reqID,\n    address payable toAirline,\n    uint256 numSeats\n  ) public payable onlyMember {\n    address fromAirline = msg.sender;\n    escrow[toAirline] = escrow[toAirline] + numSeats * 1 ether;\n    escrow[fromAirline] = escrow[fromAirline] - numSeats * 1 ether;\n    settledReqID[fromAirline] = reqID;\n  }\n\n  // 예치금을 재충전하는 함수\n  function reqlenishEscrow() public payable {\n    escrow[msg.sender] = escrow[msg.sender] + msg.value;\n  }\n}\n",
  "sourcePath": "/Users/sunghyun/Desktop/gitHuobi/BlockChain/Blockchain-in-Action/Chapter6/Airline-Dapp/airline-contract/contracts/Airline.sol",
  "compiler": {
    "name": "solc",
    "version": "0.5.16+commit.9c3226ce.Emscripten.clang"
  },
  "schemaVersion": "3.4.7",
  "updatedAt": "2022-06-05T11:25:17.120Z",
  "networkType": "ethereum",
  "devdoc": {
    "methods": {}
  },
  "userdoc": {
    "methods": {}
  }
}